{
  "contractName": "Sale",
  "abi": [
    {
      "constant": true,
      "inputs": [],
      "name": "creator",
      "outputs": [
        {
          "name": "",
          "type": "address"
        }
      ],
      "payable": false,
      "stateMutability": "view",
      "type": "function"
    },
    {
      "constant": true,
      "inputs": [],
      "name": "title",
      "outputs": [
        {
          "name": "",
          "type": "string"
        }
      ],
      "payable": false,
      "stateMutability": "view",
      "type": "function"
    },
    {
      "constant": true,
      "inputs": [],
      "name": "complete",
      "outputs": [
        {
          "name": "",
          "type": "bool"
        }
      ],
      "payable": false,
      "stateMutability": "view",
      "type": "function"
    },
    {
      "constant": true,
      "inputs": [],
      "name": "description",
      "outputs": [
        {
          "name": "",
          "type": "string"
        }
      ],
      "payable": false,
      "stateMutability": "view",
      "type": "function"
    },
    {
      "constant": true,
      "inputs": [],
      "name": "ownerContract",
      "outputs": [
        {
          "name": "",
          "type": "address"
        }
      ],
      "payable": false,
      "stateMutability": "view",
      "type": "function"
    },
    {
      "constant": true,
      "inputs": [],
      "name": "price",
      "outputs": [
        {
          "name": "",
          "type": "uint256"
        }
      ],
      "payable": false,
      "stateMutability": "view",
      "type": "function"
    },
    {
      "constant": true,
      "inputs": [],
      "name": "photoHash",
      "outputs": [
        {
          "name": "",
          "type": "string"
        }
      ],
      "payable": false,
      "stateMutability": "view",
      "type": "function"
    },
    {
      "inputs": [
        {
          "name": "_title",
          "type": "string"
        },
        {
          "name": "_description",
          "type": "string"
        },
        {
          "name": "_price",
          "type": "uint256"
        },
        {
          "name": "_photoHash",
          "type": "string"
        },
        {
          "name": "_commissionPercent",
          "type": "uint256"
        },
        {
          "name": "_creator",
          "type": "address"
        }
      ],
      "payable": false,
      "stateMutability": "nonpayable",
      "type": "constructor"
    },
    {
      "constant": false,
      "inputs": [],
      "name": "buy",
      "outputs": [],
      "payable": true,
      "stateMutability": "payable",
      "type": "function"
    },
    {
      "constant": true,
      "inputs": [],
      "name": "getSummary",
      "outputs": [
        {
          "name": "",
          "type": "string"
        },
        {
          "name": "",
          "type": "string"
        },
        {
          "name": "",
          "type": "string"
        },
        {
          "name": "",
          "type": "uint256"
        },
        {
          "name": "",
          "type": "bool"
        }
      ],
      "payable": false,
      "stateMutability": "view",
      "type": "function"
    },
    {
      "constant": false,
      "inputs": [
        {
          "name": "_photoHash",
          "type": "string"
        }
      ],
      "name": "sendHash",
      "outputs": [],
      "payable": false,
      "stateMutability": "nonpayable",
      "type": "function"
    }
  ],
  "bytecode": "0x608060405234801561001057600080fd5b50604051610dfb380380610dfb833981018060405281019080805182019291906020018051820192919060200180519060200190929190805182019291906020018051906020019092919080519060200190929190505050856001908051906020019061007e929190610163565b508460029080519060200190610095929190610163565b508360008190555082600390805190602001906100b3929190610163565b508160058190555080600760006101000a81548173ffffffffffffffffffffffffffffffffffffffff021916908373ffffffffffffffffffffffffffffffffffffffff16021790555033600660006101000a81548173ffffffffffffffffffffffffffffffffffffffff021916908373ffffffffffffffffffffffffffffffffffffffff1602179055506000600460006101000a81548160ff021916908315150217905550505050505050610208565b828054600181600116156101000203166002900490600052602060002090601f016020900481019282601f106101a457805160ff19168380011785556101d2565b828001600101855582156101d2579182015b828111156101d15782518255916020019190600101906101b6565b5b5090506101df91906101e3565b5090565b61020591905b808211156102015760008160009055506001016101e9565b5090565b90565b610be4806102176000396000f3006080604052600436106100a4576000357c0100000000000000000000000000000000000000000000000000000000900463ffffffff16806302d05d3f146100a95780634051ddac146101005780634a79d50c1461027a578063522e11771461030a5780637284e416146103395780637f74ac15146103c9578063a035b1fe14610420578063a6f2ae3a1461044b578063cfb1a76314610455578063dfb29935146104e5575b600080fd5b3480156100b557600080fd5b506100be61054e565b604051808273ffffffffffffffffffffffffffffffffffffffff1673ffffffffffffffffffffffffffffffffffffffff16815260200191505060405180910390f35b34801561010c57600080fd5b50610115610574565b6040518080602001806020018060200186815260200185151515158152602001848103845289818151815260200191508051906020019080838360005b8381101561016d578082015181840152602081019050610152565b50505050905090810190601f16801561019a5780820380516001836020036101000a031916815260200191505b50848103835288818151815260200191508051906020019080838360005b838110156101d35780820151818401526020810190506101b8565b50505050905090810190601f1680156102005780820380516001836020036101000a031916815260200191505b50848103825287818151815260200191508051906020019080838360005b8381101561023957808201518184015260208101905061021e565b50505050905090810190601f1680156102665780820380516001836020036101000a031916815260200191505b509850505050505050505060405180910390f35b34801561028657600080fd5b5061028f61077a565b6040518080602001828103825283818151815260200191508051906020019080838360005b838110156102cf5780820151818401526020810190506102b4565b50505050905090810190601f1680156102fc5780820380516001836020036101000a031916815260200191505b509250505060405180910390f35b34801561031657600080fd5b5061031f610818565b604051808215151515815260200191505060405180910390f35b34801561034557600080fd5b5061034e61082b565b6040518080602001828103825283818151815260200191508051906020019080838360005b8381101561038e578082015181840152602081019050610373565b50505050905090810190601f1680156103bb5780820380516001836020036101000a031916815260200191505b509250505060405180910390f35b3480156103d557600080fd5b506103de6108c9565b604051808273ffffffffffffffffffffffffffffffffffffffff1673ffffffffffffffffffffffffffffffffffffffff16815260200191505060405180910390f35b34801561042c57600080fd5b506104356108ef565b6040518082815260200191505060405180910390f35b6104536108f5565b005b34801561046157600080fd5b5061046a6109ff565b6040518080602001828103825283818151815260200191508051906020019080838360005b838110156104aa57808201518184015260208101905061048f565b50505050905090810190601f1680156104d75780820380516001836020036101000a031916815260200191505b509250505060405180910390f35b3480156104f157600080fd5b5061054c600480360381019080803590602001908201803590602001908080601f0160208091040260200160405190810160405280939291908181526020018383808284378201915050505050509192919290505050610a9d565b005b600760009054906101000a900473ffffffffffffffffffffffffffffffffffffffff1681565b6060806060600080600160026003600054600460009054906101000a900460ff16848054600181600116156101000203166002900480601f01602080910402602001604051908101604052809291908181526020018280546001816001161561010002031660029004801561062a5780601f106105ff5761010080835404028352916020019161062a565b820191906000526020600020905b81548152906001019060200180831161060d57829003601f168201915b50505050509450838054600181600116156101000203166002900480601f0160208091040260200160405190810160405280929190818152602001828054600181600116156101000203166002900480156106c65780601f1061069b576101008083540402835291602001916106c6565b820191906000526020600020905b8154815290600101906020018083116106a957829003601f168201915b50505050509350828054600181600116156101000203166002900480601f0160208091040260200160405190810160405280929190818152602001828054600181600116156101000203166002900480156107625780601f1061073757610100808354040283529160200191610762565b820191906000526020600020905b81548152906001019060200180831161074557829003601f168201915b50505050509250945094509450945094509091929394565b60018054600181600116156101000203166002900480601f0160208091040260200160405190810160405280929190818152602001828054600181600116156101000203166002900480156108105780601f106107e557610100808354040283529160200191610810565b820191906000526020600020905b8154815290600101906020018083116107f357829003601f168201915b505050505081565b600460009054906101000a900460ff1681565b60028054600181600116156101000203166002900480601f0160208091040260200160405190810160405280929190818152602001828054600181600116156101000203166002900480156108c15780601f10610896576101008083540402835291602001916108c1565b820191906000526020600020905b8154815290600101906020018083116108a457829003601f168201915b505050505081565b600660009054906101000a900473ffffffffffffffffffffffffffffffffffffffff1681565b60005481565b60008054341015151561090757600080fd5b60646000546005540281151561091957fe5b049050600660009054906101000a900473ffffffffffffffffffffffffffffffffffffffff1673ffffffffffffffffffffffffffffffffffffffff166108fc829081150290604051600060405180830381858888f1935050505050600760009054906101000a900473ffffffffffffffffffffffffffffffffffffffff1673ffffffffffffffffffffffffffffffffffffffff166108fc82600054039081150290604051600060405180830381858888f193505050501580156109e0573d6000803e3d6000fd5b506001600460006101000a81548160ff02191690831515021790555050565b60038054600181600116156101000203166002900480601f016020809104026020016040519081016040528092919081815260200182805460018160011615610100020316600290048015610a955780601f10610a6a57610100808354040283529160200191610a95565b820191906000526020600020905b815481529060010190602001808311610a7857829003601f168201915b505050505081565b600760009054906101000a900473ffffffffffffffffffffffffffffffffffffffff1673ffffffffffffffffffffffffffffffffffffffff163373ffffffffffffffffffffffffffffffffffffffff16141515610af957600080fd5b8060039080519060200190610b0f929190610b13565b5050565b828054600181600116156101000203166002900490600052602060002090601f016020900481019282601f10610b5457805160ff1916838001178555610b82565b82800160010185558215610b82579182015b82811115610b81578251825591602001919060010190610b66565b5b509050610b8f9190610b93565b5090565b610bb591905b80821115610bb1576000816000905550600101610b99565b5090565b905600a165627a7a72305820e90dc865cb5d2510a7858a36698f7e93e184b869ba0767fd43f706515664292f0029",
  "source": "pragma solidity ^0.4.0;\n\ncontract SaleFactory{\n    address[] public deployedSales;\n    uint public commissionPercent;\n\n    constructor() public {\n        commissionPercent = 10;\n    }\n\n    function createSale(string title, string description,uint price,  string photoHash) public {\n        address newSale = new Sale(title, description, price , photoHash,commissionPercent, msg.sender);\n        deployedSales.push(newSale);\n    }\n\n    function getDeployedSales() public view returns(address[]){\n        return deployedSales;\n    }\n\n    function getDeployedSalesCount() public view returns(uint){\n      return deployedSales.length;\n    }\n\n    function getBalance() public view returns(uint){\n        return this.balance;\n    }\n\n    function() payable {\n    }\n}\n\ncontract Sale {\n\n    uint public price;\n    string public title;\n    string public description;\n    string public photoHash;\n    bool public complete;\n\n    uint commissionPercent;\n    address public ownerContract;\n    address public creator;\n\n    modifier restricted(){\n        require(msg.sender == creator);\n        _;\n    }\n\n    constructor(string _title,string  _description,uint _price, string  _photoHash, uint _commissionPercent, address _creator) public {\n        title = _title;\n        description = _description;\n        price = _price;\n        photoHash = _photoHash;\n        commissionPercent = _commissionPercent;\n        creator = _creator;\n        ownerContract = msg.sender;\n        complete = false;\n    }\n\n    function buy() public payable {\n        require(msg.value >= price);\n        uint commisionValue = (commissionPercent*price)/100;\n        ownerContract.send(commisionValue);\n        creator.transfer(price-commisionValue);\n        complete=true;\n    }\n\n    function getSummary() public view returns (string, string, string, uint, bool) {\n        return (\n            title,\n            description,\n            photoHash,\n            price,\n            complete\n        );\n    }\n\n    function sendHash(string _photoHash) public restricted {\n        photoHash = _photoHash;\n    }\n}\n",
  "sourcePath": "/Users/bobbyborisov/code/solidity/marketplace/marketplace-react/contracts/Sale.sol",
  "compiler": {
    "name": "solc",
    "version": "0.4.24+commit.e67f0147.Emscripten.clang"
  },
  "schemaVersion": "2.0.1",
  "updatedAt": "2018-07-11T06:44:46.531Z"
}